{
  "_format": "hh-sol-artifact-1",
  "contractName": "PredictionMarket",
  "sourceName": "contracts/PredictionMarket.sol",
  "abi": [
    {
      "inputs": [],
      "stateMutability": "nonpayable",
      "type": "constructor"
    },
    {
      "anonymous": false,
      "inputs": [
        {
          "indexed": true,
          "internalType": "bytes32",
          "name": "id",
          "type": "bytes32"
        }
      ],
      "name": "ChainlinkCancelled",
      "type": "event"
    },
    {
      "anonymous": false,
      "inputs": [
        {
          "indexed": true,
          "internalType": "bytes32",
          "name": "id",
          "type": "bytes32"
        }
      ],
      "name": "ChainlinkFulfilled",
      "type": "event"
    },
    {
      "anonymous": false,
      "inputs": [
        {
          "indexed": true,
          "internalType": "bytes32",
          "name": "id",
          "type": "bytes32"
        }
      ],
      "name": "ChainlinkRequested",
      "type": "event"
    },
    {
      "anonymous": false,
      "inputs": [
        {
          "indexed": true,
          "internalType": "uint256",
          "name": "marketId",
          "type": "uint256"
        },
        {
          "indexed": false,
          "internalType": "uint256",
          "name": "amount",
          "type": "uint256"
        },
        {
          "indexed": false,
          "internalType": "address",
          "name": "buyer",
          "type": "address"
        }
      ],
      "name": "PrizeClaimed",
      "type": "event"
    },
    {
      "anonymous": false,
      "inputs": [
        {
          "indexed": true,
          "internalType": "uint256",
          "name": "marketId",
          "type": "uint256"
        },
        {
          "indexed": false,
          "internalType": "uint256",
          "name": "shares",
          "type": "uint256"
        },
        {
          "indexed": false,
          "internalType": "address",
          "name": "buyer",
          "type": "address"
        }
      ],
      "name": "SharesBought",
      "type": "event"
    },
    {
      "inputs": [],
      "name": "NFTContractAddress",
      "outputs": [
        {
          "internalType": "address",
          "name": "",
          "type": "address"
        }
      ],
      "stateMutability": "view",
      "type": "function"
    },
    {
      "inputs": [],
      "name": "VRFContractAddress",
      "outputs": [
        {
          "internalType": "address",
          "name": "",
          "type": "address"
        }
      ],
      "stateMutability": "view",
      "type": "function"
    },
    {
      "inputs": [
        {
          "internalType": "uint256",
          "name": "_idMarket",
          "type": "uint256"
        },
        {
          "internalType": "uint256",
          "name": "_numberOfTokens",
          "type": "uint256"
        }
      ],
      "name": "buyShares",
      "outputs": [],
      "stateMutability": "payable",
      "type": "function"
    },
    {
      "inputs": [],
      "name": "canClaim",
      "outputs": [
        {
          "internalType": "bool",
          "name": "",
          "type": "bool"
        }
      ],
      "stateMutability": "view",
      "type": "function"
    },
    {
      "inputs": [
        {
          "internalType": "address payable",
          "name": "receiver",
          "type": "address"
        },
        {
          "internalType": "uint256",
          "name": "_marketId",
          "type": "uint256"
        }
      ],
      "name": "claim",
      "outputs": [
        {
          "internalType": "bool",
          "name": "success",
          "type": "bool"
        },
        {
          "internalType": "bytes",
          "name": "returnData",
          "type": "bytes"
        }
      ],
      "stateMutability": "nonpayable",
      "type": "function"
    },
    {
      "inputs": [
        {
          "internalType": "address payable",
          "name": "reciever",
          "type": "address"
        }
      ],
      "name": "claimAll",
      "outputs": [],
      "stateMutability": "nonpayable",
      "type": "function"
    },
    {
      "inputs": [
        {
          "internalType": "address payable",
          "name": "receiver",
          "type": "address"
        },
        {
          "internalType": "uint256",
          "name": "_marketId",
          "type": "uint256"
        }
      ],
      "name": "claimAmount",
      "outputs": [
        {
          "internalType": "uint256",
          "name": "",
          "type": "uint256"
        }
      ],
      "stateMutability": "view",
      "type": "function"
    },
    {
      "inputs": [
        {
          "internalType": "address",
          "name": "claimer",
          "type": "address"
        }
      ],
      "name": "claimed",
      "outputs": [
        {
          "internalType": "bool",
          "name": "",
          "type": "bool"
        }
      ],
      "stateMutability": "view",
      "type": "function"
    },
    {
      "inputs": [
        {
          "internalType": "address",
          "name": "",
          "type": "address"
        }
      ],
      "name": "claimedMap",
      "outputs": [
        {
          "internalType": "bool",
          "name": "",
          "type": "bool"
        }
      ],
      "stateMutability": "view",
      "type": "function"
    },
    {
      "inputs": [],
      "name": "closeMarkets",
      "outputs": [
        {
          "internalType": "bool",
          "name": "",
          "type": "bool"
        }
      ],
      "stateMutability": "nonpayable",
      "type": "function"
    },
    {
      "inputs": [
        {
          "internalType": "string",
          "name": "_name",
          "type": "string"
        },
        {
          "internalType": "uint256",
          "name": "_driverNumber",
          "type": "uint256"
        }
      ],
      "name": "createMarket",
      "outputs": [],
      "stateMutability": "nonpayable",
      "type": "function"
    },
    {
      "inputs": [
        {
          "internalType": "string",
          "name": "_name",
          "type": "string"
        },
        {
          "internalType": "uint256[]",
          "name": "_driverNumbers",
          "type": "uint256[]"
        }
      ],
      "name": "createMarket",
      "outputs": [],
      "stateMutability": "nonpayable",
      "type": "function"
    },
    {
      "inputs": [
        {
          "internalType": "uint256",
          "name": "_driver",
          "type": "uint256"
        }
      ],
      "name": "devSetDriverNumber",
      "outputs": [],
      "stateMutability": "nonpayable",
      "type": "function"
    },
    {
      "inputs": [],
      "name": "drivernumber",
      "outputs": [
        {
          "internalType": "uint256",
          "name": "",
          "type": "uint256"
        }
      ],
      "stateMutability": "view",
      "type": "function"
    },
    {
      "inputs": [
        {
          "internalType": "bytes32",
          "name": "_requestId",
          "type": "bytes32"
        },
        {
          "internalType": "uint256",
          "name": "_drivernumber",
          "type": "uint256"
        }
      ],
      "name": "fulfill",
      "outputs": [],
      "stateMutability": "nonpayable",
      "type": "function"
    },
    {
      "inputs": [
        {
          "internalType": "uint256",
          "name": "_marketId",
          "type": "uint256"
        }
      ],
      "name": "getDriverNumber",
      "outputs": [
        {
          "internalType": "uint256",
          "name": "",
          "type": "uint256"
        }
      ],
      "stateMutability": "view",
      "type": "function"
    },
    {
      "inputs": [
        {
          "internalType": "uint256",
          "name": "_marketId",
          "type": "uint256"
        }
      ],
      "name": "getMarketName",
      "outputs": [
        {
          "internalType": "string",
          "name": "",
          "type": "string"
        }
      ],
      "stateMutability": "view",
      "type": "function"
    },
    {
      "inputs": [
        {
          "internalType": "uint256",
          "name": "_idMarket",
          "type": "uint256"
        }
      ],
      "name": "getSharePrice",
      "outputs": [
        {
          "internalType": "uint256",
          "name": "",
          "type": "uint256"
        }
      ],
      "stateMutability": "view",
      "type": "function"
    },
    {
      "inputs": [
        {
          "internalType": "uint256",
          "name": "_idMarket",
          "type": "uint256"
        }
      ],
      "name": "getSharesOwned",
      "outputs": [
        {
          "internalType": "uint256",
          "name": "",
          "type": "uint256"
        }
      ],
      "stateMutability": "view",
      "type": "function"
    },
    {
      "inputs": [
        {
          "internalType": "uint256",
          "name": "_marketId",
          "type": "uint256"
        }
      ],
      "name": "getSharesSold",
      "outputs": [
        {
          "internalType": "uint256",
          "name": "",
          "type": "uint256"
        }
      ],
      "stateMutability": "view",
      "type": "function"
    },
    {
      "inputs": [],
      "name": "isComplete",
      "outputs": [
        {
          "internalType": "bool",
          "name": "",
          "type": "bool"
        }
      ],
      "stateMutability": "view",
      "type": "function"
    },
    {
      "inputs": [
        {
          "internalType": "uint256",
          "name": "",
          "type": "uint256"
        }
      ],
      "name": "marketData",
      "outputs": [
        {
          "internalType": "string",
          "name": "name",
          "type": "string"
        },
        {
          "internalType": "uint256",
          "name": "driverNumber",
          "type": "uint256"
        },
        {
          "internalType": "uint256",
          "name": "sharesSold",
          "type": "uint256"
        },
        {
          "internalType": "bool",
          "name": "payout",
          "type": "bool"
        },
        {
          "internalType": "bool",
          "name": "created",
          "type": "bool"
        }
      ],
      "stateMutability": "view",
      "type": "function"
    },
    {
      "inputs": [
        {
          "internalType": "uint256",
          "name": "_marketId",
          "type": "uint256"
        }
      ],
      "name": "marketExists",
      "outputs": [
        {
          "internalType": "bool",
          "name": "",
          "type": "bool"
        }
      ],
      "stateMutability": "view",
      "type": "function"
    },
    {
      "inputs": [
        {
          "internalType": "address",
          "name": "",
          "type": "address"
        },
        {
          "internalType": "uint256",
          "name": "",
          "type": "uint256"
        }
      ],
      "name": "marketSharesOwned",
      "outputs": [
        {
          "internalType": "uint256",
          "name": "",
          "type": "uint256"
        }
      ],
      "stateMutability": "view",
      "type": "function"
    },
    {
      "inputs": [],
      "name": "marketsOpen",
      "outputs": [
        {
          "internalType": "bool",
          "name": "",
          "type": "bool"
        }
      ],
      "stateMutability": "view",
      "type": "function"
    },
    {
      "inputs": [],
      "name": "openMarkets",
      "outputs": [
        {
          "internalType": "bool",
          "name": "",
          "type": "bool"
        }
      ],
      "stateMutability": "nonpayable",
      "type": "function"
    },
    {
      "inputs": [],
      "name": "processResults",
      "outputs": [],
      "stateMutability": "nonpayable",
      "type": "function"
    },
    {
      "inputs": [],
      "name": "requestPosition",
      "outputs": [
        {
          "internalType": "bytes32",
          "name": "requestId",
          "type": "bytes32"
        }
      ],
      "stateMutability": "nonpayable",
      "type": "function"
    },
    {
      "inputs": [
        {
          "internalType": "address",
          "name": "contractAddress",
          "type": "address"
        }
      ],
      "name": "setNFTContractAddress",
      "outputs": [],
      "stateMutability": "nonpayable",
      "type": "function"
    },
    {
      "inputs": [
        {
          "internalType": "address",
          "name": "contractAddress",
          "type": "address"
        }
      ],
      "name": "testWhiteList",
      "outputs": [
        {
          "internalType": "bool",
          "name": "success",
          "type": "bool"
        },
        {
          "internalType": "bytes",
          "name": "returnData",
          "type": "bytes"
        }
      ],
      "stateMutability": "nonpayable",
      "type": "function"
    },
    {
      "inputs": [],
      "name": "totalPrizePool",
      "outputs": [
        {
          "internalType": "uint256",
          "name": "",
          "type": "uint256"
        }
      ],
      "stateMutability": "view",
      "type": "function"
    },
    {
      "inputs": [
        {
          "internalType": "address",
          "name": "",
          "type": "address"
        }
      ],
      "name": "vrfRandoms",
      "outputs": [
        {
          "internalType": "uint256",
          "name": "",
          "type": "uint256"
        }
      ],
      "stateMutability": "view",
      "type": "function"
    },
    {
      "inputs": [
        {
          "internalType": "uint256",
          "name": "_marketId",
          "type": "uint256"
        }
      ],
      "name": "willPayout",
      "outputs": [
        {
          "internalType": "bool",
          "name": "",
          "type": "bool"
        }
      ],
      "stateMutability": "view",
      "type": "function"
    }
  ],
  "bytecode": "0x6080604052600160045560006006556000600760006101000a81548160ff02191690831515021790555073b082580355b203acd731d82cd02a5404661e1907600860006101000a81548173ffffffffffffffffffffffffffffffffffffffff021916908373ffffffffffffffffffffffffffffffffffffffff1602179055506001600e60006101000a81548160ff0219169083151502179055506000600f5565b5e620f4800060155565b5e620f48000601655348015620000bf57600080fd5b50620000d0620001a260201b60201c565b73765acc258f3a7b2d8d103d1a9310fc51b07d5425600960006101000a81548173ffffffffffffffffffffffffffffffffffffffff021916908373ffffffffffffffffffffffffffffffffffffffff1602179055507f3231343661376333393237353435653761376665326234303032333637306138600a8190555067016345785d8a0000600b8190555033600c60006101000a81548173ffffffffffffffffffffffffffffffffffffffff021916908373ffffffffffffffffffffffffffffffffffffffff1602179055506200032a565b6200024873c89bd4e1632d3a43cb03aaad5262cbe4038bc57173ffffffffffffffffffffffffffffffffffffffff166338cc48316040518163ffffffff1660e01b815260040160206040518083038186803b1580156200020157600080fd5b505afa15801562000216573d6000803e3d6000fd5b505050506040513d601f19601f820116820180604052508101906200023c9190620002a5565b6200024a60201b60201c565b565b80600260006101000a81548173ffffffffffffffffffffffffffffffffffffffff021916908373ffffffffffffffffffffffffffffffffffffffff16021790555050565b6000815190506200029f8162000310565b92915050565b600060208284031215620002be57620002bd6200030b565b5b6000620002ce848285016200028e565b91505092915050565b6000620002e482620002eb565b9050919050565b600073ffffffffffffffffffffffffffffffffffffffff82169050919050565b600080fd5b6200031b81620002d7565b81146200032757600080fd5b50565b614225806200033a6000396000f3fe6080604052600436106101ee5760003560e01c806398bb46121161010d578063bca7d4e1116100a0578063cd7f7a261161006f578063cd7f7a2614610754578063e62c452e14610791578063ec69a654146107ba578063f8a9482f146107f7578063f91a799f14610838576101ee565b8063bca7d4e114610681578063beebc5da146106be578063c884ef83146106da578063c978a11314610717576101ee565b8063aee1f171116100dc578063aee1f171146105c5578063af0ff90a146105ee578063b2fa1c9e14610619578063b9d6948214610644576101ee565b806398bb4612146104f65780639f9e534a14610533578063aa055a4014610570578063aad3ec9614610587576101ee565b80634357855e116101855780638267f649116101545780638267f6491461043a578063883c84c1146104655780638b8ea4801461048e5780639525fab5146104cb576101ee565b80634357855e1461038057806345f18652146103a95780636dc7a627146103e657806377329f3514610411576101ee565b806329c8d938116101c157806329c8d938146102c257806338d6c59e146102ed578063398ab9a71461032a578063406117a314610355576101ee565b80631c7bbdf3146101f357806323949cd11461021e5780632410f0c0146102475780632932a9de14610285575b600080fd5b3480156101ff57600080fd5b50610208610863565b6040516102159190613642565b60405180910390f35b34801561022a57600080fd5b5061024560048036038101906102409190612fca565b6109fc565b005b34801561025357600080fd5b5061026e60048036038101906102699190612fca565b610ad0565b60405161027c929190613612565b60405180910390f35b34801561029157600080fd5b506102ac60048036038101906102a791906131e5565b610c6b565b6040516102b991906137f9565b60405180910390f35b3480156102ce57600080fd5b506102d7610c8b565b6040516102e49190613519565b60405180910390f35b3480156102f957600080fd5b50610314600480360381019061030f91906131e5565b610cb1565b60405161032191906137f9565b60405180910390f35b34801561033657600080fd5b5061033f610cd1565b60405161034c91906137f9565b60405180910390f35b34801561036157600080fd5b5061036a610cd7565b6040516103779190613519565b60405180910390f35b34801561038c57600080fd5b506103a760048036038101906103a291906130d1565b610cfd565b005b3480156103b557600080fd5b506103d060048036038101906103cb9190612fca565b610e44565b6040516103dd91906137f9565b60405180910390f35b3480156103f257600080fd5b506103fb610e5c565b60405161040891906135f7565b60405180910390f35b34801561041d57600080fd5b5061043860048036038101906104339190612ff7565b610ee6565b005b34801561044657600080fd5b5061044f610fc0565b60405161045c91906135f7565b60405180910390f35b34801561047157600080fd5b5061048c60048036038101906104879190613189565b611082565b005b34801561049a57600080fd5b506104b560048036038101906104b091906131e5565b6111cb565b6040516104c2919061365d565b60405180910390f35b3480156104d757600080fd5b506104e0611273565b6040516104ed91906137f9565b60405180910390f35b34801561050257600080fd5b5061051d60048036038101906105189190613064565b611279565b60405161052a91906137f9565b60405180910390f35b34801561053f57600080fd5b5061055a60048036038101906105559190613024565b61129e565b60405161056791906137f9565b60405180910390f35b34801561057c57600080fd5b50610585611344565b005b34801561059357600080fd5b506105ae60048036038101906105a99190613024565b61158a565b6040516105bc929190613612565b60405180910390f35b3480156105d157600080fd5b506105ec60048036038101906105e791906131e5565b6119c2565b005b3480156105fa57600080fd5b50610603611a8d565b60405161061091906135f7565b60405180910390f35b34801561062557600080fd5b5061062e611b56565b60405161063b91906135f7565b60405180910390f35b34801561065057600080fd5b5061066b600480360381019061066691906131e5565b611b69565b60405161067891906137f9565b60405180910390f35b34801561068d57600080fd5b506106a860048036038101906106a391906131e5565b611bc3565b6040516106b591906137f9565b60405180910390f35b6106d860048036038101906106d3919061323f565b611c43565b005b3480156106e657600080fd5b5061070160048036038101906106fc9190612fca565b611e23565b60405161070e91906135f7565b60405180910390f35b34801561072357600080fd5b5061073e60048036038101906107399190612fca565b611e79565b60405161074b91906135f7565b60405180910390f35b34801561076057600080fd5b5061077b600480360381019061077691906131e5565b611e99565b60405161078891906135f7565b60405180910390f35b34801561079d57600080fd5b506107b860048036038101906107b39190613111565b611ec6565b005b3480156107c657600080fd5b506107e160048036038101906107dc91906131e5565b612063565b6040516107ee91906135f7565b60405180910390f35b34801561080357600080fd5b5061081e600480360381019061081991906131e5565b612090565b60405161082f95949392919061367f565b60405180910390f35b34801561084457600080fd5b5061084d612168565b60405161085a91906135f7565b60405180910390f35b60003373ffffffffffffffffffffffffffffffffffffffff16600c60009054906101000a900473ffffffffffffffffffffffffffffffffffffffff1673ffffffffffffffffffffffffffffffffffffffff16146108f5576040517f08c379a00000000000000000000000000000000000000000000000000000000081526004016108ec90613739565b60405180910390fd5b600061090b600a5430634357855e60e01b61217b565b905061096f6040518060400160405280600481526020017f70617468000000000000000000000000000000000000000000000000000000008152506040518060600160405280602e81526020016141c2602e9139836121ac9092919063ffffffff16565b6000670de0b6b3a764000090506109c66040518060400160405280600581526020017f74696d657300000000000000000000000000000000000000000000000000000081525082846121df9092919063ffffffff16565b6109f5600960009054906101000a900473ffffffffffffffffffffffffffffffffffffffff1683600b54612212565b9250505090565b3373ffffffffffffffffffffffffffffffffffffffff16600c60009054906101000a900473ffffffffffffffffffffffffffffffffffffffff1673ffffffffffffffffffffffffffffffffffffffff1614610a8c576040517f08c379a0000000000000000000000000000000000000000000000000000000008152600401610a8390613739565b60405180910390fd5b80600760016101000a81548173ffffffffffffffffffffffffffffffffffffffff021916908373ffffffffffffffffffffffffffffffffffffffff16021790555050565b600060603373ffffffffffffffffffffffffffffffffffffffff16600c60009054906101000a900473ffffffffffffffffffffffffffffffffffffffff1673ffffffffffffffffffffffffffffffffffffffff1614610b64576040517f08c379a0000000000000000000000000000000000000000000000000000000008152600401610b5b90613739565b60405180910390fd5b8273ffffffffffffffffffffffffffffffffffffffff16620f424033604051602401610b909190613519565b6040516020818303038152906040527f47ee0394000000000000000000000000000000000000000000000000000000007bffffffffffffffffffffffffffffffffffffffffffffffffffffffff19166020820180517bffffffffffffffffffffffffffffffffffffffffffffffffffffffff8381831617835250505050604051610c1a91906134d6565b60006040518083038160008787f1925050503d8060008114610c58576040519150601f19603f3d011682016040523d82523d6000602084013e610c5d565b606091505b508092508193505050915091565b600060106000838152602001908152602001600020600101549050919050565b600760019054906101000a900473ffffffffffffffffffffffffffffffffffffffff1681565b600060106000838152602001908152602001600020600201549050919050565b600d5481565b600860009054906101000a900473ffffffffffffffffffffffffffffffffffffffff1681565b816005600082815260200190815260200160002060009054906101000a900473ffffffffffffffffffffffffffffffffffffffff1673ffffffffffffffffffffffffffffffffffffffff163373ffffffffffffffffffffffffffffffffffffffff1614610d9f576040517f08c379a0000000000000000000000000000000000000000000000000000000008152600401610d96906137d9565b60405180910390fd5b6005600082815260200190815260200160002060006101000a81549073ffffffffffffffffffffffffffffffffffffffff0219169055807f7cc135e0cebb02c3480ae5d74d377283180a2601f8f644edf7987b009316c63a60405160405180910390a26000600e60006101000a81548160ff021916908315150217905550816006819055506001600760006101000a81548160ff021916908315150217905550505050565b60136020528060005260406000206000915090505481565b600080601460003373ffffffffffffffffffffffffffffffffffffffff1673ffffffffffffffffffffffffffffffffffffffff1681526020019081526020016000206000600654815260200190815260200160002054118015610ee1575060106000600654815260200190815260200160002060030160009054906101000a900460ff165b905090565b3373ffffffffffffffffffffffffffffffffffffffff16600c60009054906101000a900473ffffffffffffffffffffffffffffffffffffffff1673ffffffffffffffffffffffffffffffffffffffff1614610f76576040517f08c379a0000000000000000000000000000000000000000000000000000000008152600401610f6d90613739565b60405180910390fd5b8073ffffffffffffffffffffffffffffffffffffffff166108fc479081150290604051600060405180830381858888f19350505050158015610fbc573d6000803e3d6000fd5b5050565b60003373ffffffffffffffffffffffffffffffffffffffff16600c60009054906101000a900473ffffffffffffffffffffffffffffffffffffffff1673ffffffffffffffffffffffffffffffffffffffff1614611052576040517f08c379a000000000000000000000000000000000000000000000000000000000815260040161104990613739565b60405180910390fd5b6001600e60006101000a81548160ff021916908315150217905550600e60009054906101000a900460ff16905090565b3373ffffffffffffffffffffffffffffffffffffffff16600c60009054906101000a900473ffffffffffffffffffffffffffffffffffffffff1673ffffffffffffffffffffffffffffffffffffffff1614611112576040517f08c379a000000000000000000000000000000000000000000000000000000000815260040161110990613739565b60405180910390fd5b6040518060a00160405280838152602001828152602001600081526020016000151581526020016001151581525060106000838152602001908152602001600020600082015181600001908051906020019061116f929190612d14565b50602082015181600101556040820151816002015560608201518160030160006101000a81548160ff02191690831515021790555060808201518160030160016101000a81548160ff0219169083151502179055509050505050565b60606010600083815260200190815260200160002060000180546111ee90613d57565b80601f016020809104026020016040519081016040528092919081815260200182805461121a90613d57565b80156112675780601f1061123c57610100808354040283529160200191611267565b820191906000526020600020905b81548152906001019060200180831161124a57829003601f168201915b50505050509050919050565b60065481565b6014602052816000526040600020602052806000526040600020600091509150505481565b60008060646010600085815260200190815260200160002060020154600d54601460008873ffffffffffffffffffffffffffffffffffffffff1673ffffffffffffffffffffffffffffffffffffffff168152602001908152602001600020600087815260200190815260200160002054606461131a9190613b23565b6113249190613b23565b61132e9190613981565b6113389190613981565b90508091505092915050565b3373ffffffffffffffffffffffffffffffffffffffff16600c60009054906101000a900473ffffffffffffffffffffffffffffffffffffffff1673ffffffffffffffffffffffffffffffffffffffff16146113d4576040517f08c379a00000000000000000000000000000000000000000000000000000000081526004016113cb90613739565b60405180910390fd5b600060065411611419576040517f08c379a000000000000000000000000000000000000000000000000000000000815260040161141090613759565b60405180910390fd5b600160106000600654815260200190815260200160002060030160006101000a81548160ff0219169083151502179055506000600860009054906101000a900473ffffffffffffffffffffffffffffffffffffffff1673ffffffffffffffffffffffffffffffffffffffff16620f42403360405160240161149a9190613519565b6040516020818303038152906040527fdbdff2c1000000000000000000000000000000000000000000000000000000007bffffffffffffffffffffffffffffffffffffffffffffffffffffffff19166020820180517bffffffffffffffffffffffffffffffffffffffffffffffffffffffff838183161783525050505060405161152491906134d6565b60006040518083038160008787f1925050503d8060008114611562576040519150601f19603f3d011682016040523d82523d6000602084013e611567565b606091505b50915050611587818060200190518101906115829190613212565b612232565b50565b6000606061159783612063565b6115d6576040517f08c379a00000000000000000000000000000000000000000000000000000000081526004016115cd90613719565b60405180910390fd5b6010600084815260200190815260200160002060030160009054906101000a900460ff16611639576040517f08c379a0000000000000000000000000000000000000000000000000000000008152600401611630906136d9565b60405180910390fd5b6000601460008673ffffffffffffffffffffffffffffffffffffffff1673ffffffffffffffffffffffffffffffffffffffff168152602001908152602001600020600085815260200190815260200160002054116116cc576040517f08c379a00000000000000000000000000000000000000000000000000000000081526004016116c3906137b9565b60405180910390fd5b600060646010600086815260200190815260200160002060020154600d54601460008973ffffffffffffffffffffffffffffffffffffffff1673ffffffffffffffffffffffffffffffffffffffff16815260200190815260200160002060008881526020019081526020016000205460646117479190613b23565b6117519190613b23565b61175b9190613981565b6117659190613981565b90506001601160008773ffffffffffffffffffffffffffffffffffffffff1673ffffffffffffffffffffffffffffffffffffffff16815260200190815260200160002060006101000a81548160ff0219169083151502179055506000601460008773ffffffffffffffffffffffffffffffffffffffff1673ffffffffffffffffffffffffffffffffffffffff1681526020019081526020016000206000868152602001908152602001600020819055508473ffffffffffffffffffffffffffffffffffffffff166108fc829081150290604051600060405180830381858888f1935050505015801561185b573d6000803e3d6000fd5b50837fd29f668627eed111ef23a47210867697c0b3b07fd1d5b9cfe9c8e02823b749ea823360405161188e929190613814565b60405180910390a2600760019054906101000a900473ffffffffffffffffffffffffffffffffffffffff1673ffffffffffffffffffffffffffffffffffffffff16620f4240336040516024016118e49190613519565b6040516020818303038152906040527f47ee0394000000000000000000000000000000000000000000000000000000007bffffffffffffffffffffffffffffffffffffffffffffffffffffffff19166020820180517bffffffffffffffffffffffffffffffffffffffffffffffffffffffff838183161783525050505060405161196e91906134d6565b60006040518083038160008787f1925050503d80600081146119ac576040519150601f19603f3d011682016040523d82523d6000602084013e6119b1565b606091505b508093508194505050509250929050565b3373ffffffffffffffffffffffffffffffffffffffff16600c60009054906101000a900473ffffffffffffffffffffffffffffffffffffffff1673ffffffffffffffffffffffffffffffffffffffff1614611a52576040517f08c379a0000000000000000000000000000000000000000000000000000000008152600401611a4990613739565b60405180910390fd5b80600681905550600160106000600654815260200190815260200160002060030160006101000a81548160ff02191690831515021790555050565b60003373ffffffffffffffffffffffffffffffffffffffff16600c60009054906101000a900473ffffffffffffffffffffffffffffffffffffffff1673ffffffffffffffffffffffffffffffffffffffff1614611b1f576040517f08c379a0000000000000000000000000000000000000000000000000000000008152600401611b1690613739565b60405180910390fd5b6000600e60006101000a81548160ff02191690831515021790555047600d81905550600e60009054906101000a900460ff16905090565b600760009054906101000a900460ff1681565b6000601460003373ffffffffffffffffffffffffffffffffffffffff1673ffffffffffffffffffffffffffffffffffffffff1681526020019081526020016000206000838152602001908152602001600020549050919050565b600080600f541415611bd9576015549050611c3e565b6000600f5460646010600086815260200190815260200160002060020154611c019190613b23565b611c0b9190613981565b90506000606460165483611c1f9190613b23565b611c299190613981565b601554611c36919061392b565b905080925050505b919050565b600e60009054906101000a900460ff16611c92576040517f08c379a0000000000000000000000000000000000000000000000000000000008152600401611c8990613799565b60405180910390fd5b80611c9c83611bc3565b611ca69190613b23565b3414611ce7576040517f08c379a0000000000000000000000000000000000000000000000000000000008152600401611cde90613779565b60405180910390fd5b611cf082612063565b611d2f576040517f08c379a0000000000000000000000000000000000000000000000000000000008152600401611d2690613719565b60405180910390fd5b80601060008481526020019081526020016000206002016000828254611d55919061392b565b9250508190555080601460003373ffffffffffffffffffffffffffffffffffffffff1673ffffffffffffffffffffffffffffffffffffffff16815260200190815260200160002060008481526020019081526020016000206000828254611dbc919061392b565b9250508190555080600f6000828254611dd5919061392b565b92505081905550611de533612312565b817fd29f668627eed111ef23a47210867697c0b3b07fd1d5b9cfe9c8e02823b749ea8233604051611e17929190613814565b60405180910390a25050565b6000601160008373ffffffffffffffffffffffffffffffffffffffff1673ffffffffffffffffffffffffffffffffffffffff16815260200190815260200160002060009054906101000a900460ff169050919050565b60116020528060005260406000206000915054906101000a900460ff1681565b60006010600083815260200190815260200160002060030160009054906101000a900460ff169050919050565b3373ffffffffffffffffffffffffffffffffffffffff16600c60009054906101000a900473ffffffffffffffffffffffffffffffffffffffff1673ffffffffffffffffffffffffffffffffffffffff1614611f56576040517f08c379a0000000000000000000000000000000000000000000000000000000008152600401611f4d90613739565b60405180910390fd5b60005b815181101561205e576040518060a00160405280848152602001838381518110611f8657611f85613eef565b5b60200260200101518152602001600081526020016000151581526020016001151581525060106000848481518110611fc157611fc0613eef565b5b602002602001015181526020019081526020016000206000820151816000019080519060200190611ff3929190612d14565b50602082015181600101556040820151816002015560608201518160030160006101000a81548160ff02191690831515021790555060808201518160030160016101000a81548160ff021916908315150217905550905050808061205690613dba565b915050611f59565b505050565b60006010600083815260200190815260200160002060030160019054906101000a900460ff169050919050565b60106020528060005260406000206000915090508060000180546120b390613d57565b80601f01602080910402602001604051908101604052809291908181526020018280546120df90613d57565b801561212c5780601f106121015761010080835404028352916020019161212c565b820191906000526020600020905b81548152906001019060200180831161210f57829003601f168201915b5050505050908060010154908060020154908060030160009054906101000a900460ff16908060030160019054906101000a900460ff16905085565b600e60009054906101000a900460ff1681565b612183612d9a565b61218b612d9a565b6121a28585858461241b909392919063ffffffff16565b9150509392505050565b6121c38284608001516124cb90919063ffffffff16565b6121da8184608001516124cb90919063ffffffff16565b505050565b6121f68284608001516124cb90919063ffffffff16565b61220d8184608001516124f090919063ffffffff16565b505050565b60006122298484846001634042994660e01b61259d565b90509392505050565b60005b60128054905081101561230e57600a828260405160200161225792919061383d565b6040516020818303038152906040528051906020012060001c61227a9190613e31565b601360006012848154811061229257612291613eef565b5b9060005260206000200160009054906101000a900473ffffffffffffffffffffffffffffffffffffffff1673ffffffffffffffffffffffffffffffffffffffff1673ffffffffffffffffffffffffffffffffffffffff16815260200190815260200160002081905550808061230690613dba565b915050612235565b5050565b6000805b6012805490508110156123ad576012818154811061233757612336613eef565b5b9060005260206000200160009054906101000a900473ffffffffffffffffffffffffffffffffffffffff1673ffffffffffffffffffffffffffffffffffffffff168373ffffffffffffffffffffffffffffffffffffffff16141561239a57600191505b80806123a590613dba565b915050612316565b5080612417576012829080600181540180825580915050600190039060005260206000200160009091909190916101000a81548173ffffffffffffffffffffffffffffffffffffffff021916908373ffffffffffffffffffffffffffffffffffffffff1602179055505b5050565b612423612d9a565b6124338560800151610100612805565b508385600001818152505082856020019073ffffffffffffffffffffffffffffffffffffffff16908173ffffffffffffffffffffffffffffffffffffffff16815250508185604001907bffffffffffffffffffffffffffffffffffffffffffffffffffffffff191690817bffffffffffffffffffffffffffffffffffffffffffffffffffffffff191681525050849050949350505050565b6124d8826003835161286f565b6124eb81836129b490919063ffffffff16565b505050565b7fffffffffffffffffffffffffffffffffffffffffffffffff00000000000000008112156125275761252282826129d6565b612599565b67ffffffffffffffff811315612546576125418282612a4d565b612598565b6000811261255f5761255a8260008361286f565b612597565b612596826001837fffffffffffffffffffffffffffffffffffffffffffffffffffffffffffffffff6125919190613b7d565b61286f565b5b5b5b5050565b6000306004546040516020016125b49291906134ed565b604051602081830303815290604052805190602001209050600454856060018181525050856005600083815260200190815260200160002060006101000a81548173ffffffffffffffffffffffffffffffffffffffff021916908373ffffffffffffffffffffffffffffffffffffffff160217905550807fb5e6e01e79f91267dc17b4e6314d5d4d03593d2ceee0fbb452b750bd70ea5af960405160405180910390a2600082600080886000015189602001518a604001518b606001518a8d6080015160000151604051602401612692989796959493929190613534565b604051602081830303815290604052907bffffffffffffffffffffffffffffffffffffffffffffffffffffffff19166020820180517bffffffffffffffffffffffffffffffffffffffffffffffffffffffff83818316178352505050509050600260009054906101000a900473ffffffffffffffffffffffffffffffffffffffff1673ffffffffffffffffffffffffffffffffffffffff16634000aea08887846040518463ffffffff1660e01b8152600401612750939291906135b9565b602060405180830381600087803b15801561276a57600080fd5b505af115801561277e573d6000803e3d6000fd5b505050506040513d601f19601f820116820180604052508101906127a291906130a4565b6127e1576040517f08c379a00000000000000000000000000000000000000000000000000000000081526004016127d8906136f9565b60405180910390fd5b6001600460008282546127f4919061392b565b925050819055505095945050505050565b61280d612e07565b600060208361281c9190613e31565b146128485760208261282e9190613e31565b602061283a9190613c11565b82612845919061392b565b91505b81836020018181525050604051808452600081528281016020016040525082905092915050565b6017811161289c576128968160058460ff16901b60ff161784612a9990919063ffffffff16565b506129af565b60ff81116128de576128c1601860058460ff16901b1784612a9990919063ffffffff16565b506128d881600185612ab99092919063ffffffff16565b506129ae565b61ffff811161292157612904601960058460ff16901b1784612a9990919063ffffffff16565b5061291b81600285612ab99092919063ffffffff16565b506129ad565b63ffffffff811161296657612949601a60058460ff16901b1784612a9990919063ffffffff16565b5061296081600485612ab99092919063ffffffff16565b506129ac565b67ffffffffffffffff81116129ab57612992601b60058460ff16901b1784612a9990919063ffffffff16565b506129a981600885612ab99092919063ffffffff16565b505b5b5b5b5b505050565b6129bc612e07565b6129ce83846000015151848551612adb565b905092915050565b6129f460036005600660ff16901b1783612a9990919063ffffffff16565b50612a4982827fffffffffffffffffffffffffffffffffffffffffffffffffffffffffffffffff612a259190613b7d565b604051602001612a3591906137f9565b604051602081830303815290604052612bca565b5050565b612a6b60026005600660ff16901b1783612a9990919063ffffffff16565b50612a958282604051602001612a8191906137f9565b604051602081830303815290604052612bca565b5050565b612aa1612e07565b612ab18384600001515184612bef565b905092915050565b612ac1612e07565b612ad2848560000151518585612c46565b90509392505050565b612ae3612e07565b8251821115612af157600080fd5b84602001518285612b02919061392b565b1115612b3757612b36856002612b2788602001518887612b22919061392b565b612cd4565b612b319190613b23565b612cf0565b5b600080865180518760208301019350808887011115612b565787860182525b60208701925050505b60208410612b9d5780518252602082612b78919061392b565b9150602081612b87919061392b565b9050602084612b969190613c11565b9350612b5f565b60006001856020036101000a03905080198251168184511681811785525050508692505050949350505050565b612bd7826002835161286f565b612bea81836129b490919063ffffffff16565b505050565b612bf7612e07565b83602001518310612c1d57612c1c8460028660200151612c179190613b23565b612cf0565b5b8351805160208583010184815381861415612c39576001820183525b5050508390509392505050565b612c4e612e07565b84602001518483612c5f919061392b565b1115612c8757612c868560028685612c77919061392b565b612c819190613b23565b612cf0565b5b6000600183610100612c999190613a05565b612ca39190613c11565b90508551838682010185831982511617815281518588011115612cc65784870182525b505085915050949350505050565b600081831115612ce657829050612cea565b8190505b92915050565b600082600001519050612d038383612805565b50612d0e83826129b4565b50505050565b828054612d2090613d57565b90600052602060002090601f016020900481019282612d425760008555612d89565b82601f10612d5b57805160ff1916838001178555612d89565b82800160010185558215612d89579182015b82811115612d88578251825591602001919060010190612d6d565b5b509050612d969190612e21565b5090565b6040518060a0016040528060008019168152602001600073ffffffffffffffffffffffffffffffffffffffff16815260200160007bffffffffffffffffffffffffffffffffffffffffffffffffffffffff1916815260200160008152602001612e01612e07565b81525090565b604051806040016040528060608152602001600081525090565b5b80821115612e3a576000816000905550600101612e22565b5090565b6000612e51612e4c8461388b565b613866565b90508083825260208201905082856020860282011115612e7457612e73613f52565b5b60005b85811015612ea45781612e8a8882612fa0565b845260208401935060208301925050600181019050612e77565b5050509392505050565b6000612ec1612ebc846138b7565b613866565b905082815260208101848484011115612edd57612edc613f57565b5b612ee8848285613d15565b509392505050565b600081359050612eff8161414e565b92915050565b600081359050612f1481614165565b92915050565b600082601f830112612f2f57612f2e613f4d565b5b8135612f3f848260208601612e3e565b91505092915050565b600081519050612f578161417c565b92915050565b600081359050612f6c81614193565b92915050565b600082601f830112612f8757612f86613f4d565b5b8135612f97848260208601612eae565b91505092915050565b600081359050612faf816141aa565b92915050565b600081519050612fc4816141aa565b92915050565b600060208284031215612fe057612fdf613f61565b5b6000612fee84828501612ef0565b91505092915050565b60006020828403121561300d5761300c613f61565b5b600061301b84828501612f05565b91505092915050565b6000806040838503121561303b5761303a613f61565b5b600061304985828601612f05565b925050602061305a85828601612fa0565b9150509250929050565b6000806040838503121561307b5761307a613f61565b5b600061308985828601612ef0565b925050602061309a85828601612fa0565b9150509250929050565b6000602082840312156130ba576130b9613f61565b5b60006130c884828501612f48565b91505092915050565b600080604083850312156130e8576130e7613f61565b5b60006130f685828601612f5d565b925050602061310785828601612fa0565b9150509250929050565b6000806040838503121561312857613127613f61565b5b600083013567ffffffffffffffff81111561314657613145613f5c565b5b61315285828601612f72565b925050602083013567ffffffffffffffff81111561317357613172613f5c565b5b61317f85828601612f1a565b9150509250929050565b600080604083850312156131a05761319f613f61565b5b600083013567ffffffffffffffff8111156131be576131bd613f5c565b5b6131ca85828601612f72565b92505060206131db85828601612fa0565b9150509250929050565b6000602082840312156131fb576131fa613f61565b5b600061320984828501612fa0565b91505092915050565b60006020828403121561322857613227613f61565b5b600061323684828501612fb5565b91505092915050565b6000806040838503121561325657613255613f61565b5b600061326485828601612fa0565b925050602061327585828601612fa0565b9150509250929050565b61328881613c45565b82525050565b61329781613c69565b82525050565b6132a681613c75565b82525050565b6132b581613c7f565b82525050565b60006132c6826138e8565b6132d081856138fe565b93506132e0818560208601613d24565b6132e981613f66565b840191505092915050565b60006132ff826138e8565b613309818561390f565b9350613319818560208601613d24565b80840191505092915050565b61333661333182613cdf565b613e03565b82525050565b6000613347826138f3565b613351818561391a565b9350613361818560208601613d24565b61336a81613f66565b840191505092915050565b600061338260188361391a565b915061338d82613f91565b602082019050919050565b60006133a560238361391a565b91506133b082613fba565b604082019050919050565b60006133c860158361391a565b91506133d382614009565b602082019050919050565b60006133eb60068361391a565b91506133f682614032565b602082019050919050565b600061340e601c8361391a565b91506134198261405b565b602082019050919050565b600061343160118361391a565b915061343c82614084565b602082019050919050565b600061345460138361391a565b915061345f826140ad565b602082019050919050565b6000613477600f8361391a565b9150613482826140d6565b602082019050919050565b600061349a60288361391a565b91506134a5826140ff565b604082019050919050565b6134b981613cd5565b82525050565b6134d06134cb82613cd5565b613e27565b82525050565b60006134e282846132f4565b915081905092915050565b60006134f98285613325565b60148201915061350982846134bf565b6020820191508190509392505050565b600060208201905061352e600083018461327f565b92915050565b60006101008201905061354a600083018b61327f565b613557602083018a6134b0565b613564604083018961329d565b613571606083018861327f565b61357e60808301876132ac565b61358b60a08301866134b0565b61359860c08301856134b0565b81810360e08301526135aa81846132bb565b90509998505050505050505050565b60006060820190506135ce600083018661327f565b6135db60208301856134b0565b81810360408301526135ed81846132bb565b9050949350505050565b600060208201905061360c600083018461328e565b92915050565b6000604082019050613627600083018561328e565b818103602083015261363981846132bb565b90509392505050565b6000602082019050613657600083018461329d565b92915050565b60006020820190508181036000830152613677818461333c565b905092915050565b600060a0820190508181036000830152613699818861333c565b90506136a860208301876134b0565b6136b560408301866134b0565b6136c2606083018561328e565b6136cf608083018461328e565b9695505050505050565b600060208201905081810360008301526136f281613375565b9050919050565b6000602082019050818103600083015261371281613398565b9050919050565b60006020820190508181036000830152613732816133bb565b9050919050565b60006020820190508181036000830152613752816133de565b9050919050565b6000602082019050818103600083015261377281613401565b9050919050565b6000602082019050818103600083015261379281613424565b9050919050565b600060208201905081810360008301526137b281613447565b9050919050565b600060208201905081810360008301526137d28161346a565b9050919050565b600060208201905081810360008301526137f28161348d565b9050919050565b600060208201905061380e60008301846134b0565b92915050565b600060408201905061382960008301856134b0565b613836602083018461327f565b9392505050565b600060408201905061385260008301856134b0565b61385f60208301846134b0565b9392505050565b6000613870613881565b905061387c8282613d89565b919050565b6000604051905090565b600067ffffffffffffffff8211156138a6576138a5613f1e565b5b602082029050602081019050919050565b600067ffffffffffffffff8211156138d2576138d1613f1e565b5b6138db82613f66565b9050602081019050919050565b600081519050919050565b600081519050919050565b600082825260208201905092915050565b600081905092915050565b600082825260208201905092915050565b600061393682613cd5565b915061394183613cd5565b9250827fffffffffffffffffffffffffffffffffffffffffffffffffffffffffffffffff0382111561397657613975613e62565b5b828201905092915050565b600061398c82613cd5565b915061399783613cd5565b9250826139a7576139a6613e91565b5b828204905092915050565b6000808291508390505b60018511156139fc578086048111156139d8576139d7613e62565b5b60018516156139e75780820291505b80810290506139f585613f84565b94506139bc565b94509492505050565b6000613a1082613cd5565b9150613a1b83613cd5565b9250613a487fffffffffffffffffffffffffffffffffffffffffffffffffffffffffffffffff8484613a50565b905092915050565b600082613a605760019050613b1c565b81613a6e5760009050613b1c565b8160018114613a845760028114613a8e57613abd565b6001915050613b1c565b60ff841115613aa057613a9f613e62565b5b8360020a915084821115613ab757613ab6613e62565b5b50613b1c565b5060208310610133831016604e8410600b8410161715613af25782820a905083811115613aed57613aec613e62565b5b613b1c565b613aff84848460016139b2565b92509050818404811115613b1657613b15613e62565b5b81810290505b9392505050565b6000613b2e82613cd5565b9150613b3983613cd5565b9250817fffffffffffffffffffffffffffffffffffffffffffffffffffffffffffffffff0483118215151615613b7257613b71613e62565b5b828202905092915050565b6000613b8882613cab565b9150613b9383613cab565b9250827f800000000000000000000000000000000000000000000000000000000000000001821260008412151615613bce57613bcd613e62565b5b827f7fffffffffffffffffffffffffffffffffffffffffffffffffffffffffffffff018213600084121615613c0657613c05613e62565b5b828203905092915050565b6000613c1c82613cd5565b9150613c2783613cd5565b925082821015613c3a57613c39613e62565b5b828203905092915050565b6000613c5082613cb5565b9050919050565b6000613c6282613cb5565b9050919050565b60008115159050919050565b6000819050919050565b60007fffffffff0000000000000000000000000000000000000000000000000000000082169050919050565b6000819050919050565b600073ffffffffffffffffffffffffffffffffffffffff82169050919050565b6000819050919050565b6000613cea82613cf1565b9050919050565b6000613cfc82613d03565b9050919050565b6000613d0e82613cb5565b9050919050565b82818337600083830152505050565b60005b83811015613d42578082015181840152602081019050613d27565b83811115613d51576000848401525b50505050565b60006002820490506001821680613d6f57607f821691505b60208210811415613d8357613d82613ec0565b5b50919050565b613d9282613f66565b810181811067ffffffffffffffff82111715613db157613db0613f1e565b5b80604052505050565b6000613dc582613cd5565b91507fffffffffffffffffffffffffffffffffffffffffffffffffffffffffffffffff821415613df857613df7613e62565b5b600182019050919050565b6000613e0e82613e15565b9050919050565b6000613e2082613f77565b9050919050565b6000819050919050565b6000613e3c82613cd5565b9150613e4783613cd5565b925082613e5757613e56613e91565b5b828206905092915050565b7f4e487b7100000000000000000000000000000000000000000000000000000000600052601160045260246000fd5b7f4e487b7100000000000000000000000000000000000000000000000000000000600052601260045260246000fd5b7f4e487b7100000000000000000000000000000000000000000000000000000000600052602260045260246000fd5b7f4e487b7100000000000000000000000000000000000000000000000000000000600052603260045260246000fd5b7f4e487b7100000000000000000000000000000000000000000000000000000000600052604160045260246000fd5b600080fd5b600080fd5b600080fd5b600080fd5b600080fd5b6000601f19601f8301169050919050565b60008160601b9050919050565b60008160011c9050919050565b7f4d61726b6574206973206e6f7420706179696e67206f75740000000000000000600082015250565b7f756e61626c6520746f207472616e73666572416e6443616c6c20746f206f726160008201527f636c650000000000000000000000000000000000000000000000000000000000602082015250565b7f4d61726b657420646f6573206e6f742065786973740000000000000000000000600082015250565b7f2161646d696e0000000000000000000000000000000000000000000000000000600082015250565b7f4d61726b6574206e6f7420726561647920746f2070726f636573732100000000600082015250565b7f496e737566666963656e742076616c7565000000000000000000000000000000600082015250565b7f4d61726b6574732061726520636c6f7365642100000000000000000000000000600082015250565b7f4e6f20736861726573206f776e65640000000000000000000000000000000000600082015250565b7f536f75726365206d75737420626520746865206f7261636c65206f662074686560008201527f2072657175657374000000000000000000000000000000000000000000000000602082015250565b61415781613c45565b811461416257600080fd5b50565b61416e81613c57565b811461417957600080fd5b50565b61418581613c69565b811461419057600080fd5b50565b61419c81613c75565b81146141a757600080fd5b50565b6141b381613cd5565b81146141be57600080fd5b5056fe646174612c4d52446174612c526163655461626c652c52616365732c302c526573756c74732c302c6e756d626572a2646970667358221220d786de6dd884641a0c0a71daa77e4f9b63a9c9fc0fbb2fba7181276828c2b50e64736f6c63430008070033",
  "linkReferences": {},
  "deployedLinkReferences": {}
}